:020000040800F2
:10000000400400203D0400082D0400082F040008CF
:100010003104000833040008350400080000000023
:10002000000000000000000000000000370400088D
:1000300039040008000000003B04000869000008C3
:10004000414801684FF47A72B1FBF2F0401EB0F102
:10005000807F08D23D493E4A48600023F02010705E
:100060008B600720086070473A49086810B10A6839
:10007000521E0A60704710B586B00121022000F0C0
:10008000B7F84FF440610091022203218DF805106A
:100090008DF80420012100228DF807108DF806202C
:1000A00069462D4C204600F0C3F807220A2120465D
:1000B00000F0EDF807220B21204600F0E8F80121BE
:1000C0004FF4802000F09EF84FF416510291002268
:1000D0000C21ADF81420ADF81210ADF810200392E9
:1000E00002A91E4C204600F0E3F80121204600F052
:1000F0002FF906B010BDE0B50121022000F078F81C
:10010000C021009101228DF8042003218DF80510F3
:100110000022ADF8062069460F4800F089F807BDB7
:1001200038B5FFF7E8FFFFF7A6FFFFF789FF0024C8
:10013000084D1E21296028680028FCD1E1B207483B
:1001400000F010F9641CF4E73800002010E000E033
:1001500023ED00E03C000020000402400048004085
:10016000F0B52D492D4C4E682D4D2E4A012316F029
:100170000C061CD0042E04D0082E04D00C2E04D063
:1001800015E02B461AE0234618E04B684E68C3F38F
:100190008343C6F38156D35C4F68761CFF0347BF89
:1001A0005C43B4FBF6F35D43B5FBF6F306E00C6885
:1001B000640B04F00704641CA340DB03036002F13A
:1001C0000C054B680468C3F303130C32EB5CDC4092
:1001D00044604B684468C3F30223EB5CDC408460FA
:1001E00049684368C1F3C221515CCB40C360F0BD94
:1001F0000D4A002919BF11680843136823EA00005B
:1002000010607047094A002919BF11680843136834
:1002100023EA0000106070470438024000127A00A0
:100220000024F400000000201C3802402438024062
:10023000F0B5002201250B6895402B40AB4222D13E
:10024000530003249C4006680F79E44326409F40F6
:100250003E4306600E79012E18BF022E0CD186682F
:100260004F7926409F403E43866086888F7926EAF4
:10027000050597403D438580C568CE792C4006FA38
:1002800003F32343C360521C102AD3D3F0BD10B52F
:10029000CB0800EB8300890001F01C01036A0F24E6
:1002A0008C40A34303628A40036A1A43026210BD72
:1002B00038B5044684B00D46228AE8884CF6FF71B2
:1002C0000A40024322824EF6F311A289A8880A400E
:1002D0002989024368890A430243A2814FF6FF41FC
:1002E000A28AA8890A400243A2826846FFF738FF23
:1002F00016492A688C420CBF039902991920A389D8
:10030000A589414318044CBF52009200B1FBF2F1A1
:100310006422B1FBF2F212011309642000FB1311F5
:10032000280407D5C90032316420B1FBF0F000F099
:10033000070006E0090132316420B1FBF0F000F063
:100340000F000243228105B030BD0000003801409B
:1003500021B1818941F400518181704782894DF634
:10036000FF7103E0C1F30801818070470A40828178
:10037000704730B5016884684218416802EB510348
:10038000C9070BD54C4409E012F9011B12F8015BB7
:10039000002904F8015B05D5491CF9D19A42F3D133
:1003A0000C3030BD491EF1D5F8E7000010B5074903
:1003B00079441831064C7C44163404E00A68081D60
:1003C000114488470146A142F8D110BD0800000041
:1003D000140000009FFFFFFF700000006600000097
:1003E0000000002000F00DF8002801D0FFF7DEFF2C
:1003F000AFF300800020AFF30080FFF791FE00F024
:1004000002F80120704700F001B8000007463846A6
:1004100000F002F8FBE7000080B5AFF30080024A6D
:1004200011001820ABBEFBE7260002007047FEE774
:10043000FEE7FEE7FEE7704770477047AFF30080C6
:10044000AFF30080FFF7CEFF08030406080C101876
:100450002030F90014010203040102030406070816
:1004600009030406080C10182030F5000B010203E4
:0B047000040607080900A24A04FC0073
:040000050800043DAE
:00000001FF
